{
  "contractName": "Covifund",
  "abi": [
    {
      "constant": true,
      "inputs": [],
      "name": "oCount",
      "outputs": [
        {
          "internalType": "uint256",
          "name": "",
          "type": "uint256"
        }
      ],
      "payable": false,
      "stateMutability": "view",
      "type": "function"
    },
    {
      "constant": true,
      "inputs": [
        {
          "internalType": "uint256",
          "name": "",
          "type": "uint256"
        }
      ],
      "name": "orgs",
      "outputs": [
        {
          "internalType": "uint256",
          "name": "id",
          "type": "uint256"
        },
        {
          "internalType": "uint256",
          "name": "funds",
          "type": "uint256"
        },
        {
          "internalType": "string",
          "name": "title",
          "type": "string"
        },
        {
          "internalType": "string",
          "name": "category",
          "type": "string"
        },
        {
          "internalType": "string",
          "name": "description",
          "type": "string"
        },
        {
          "internalType": "address payable",
          "name": "org_address",
          "type": "address"
        }
      ],
      "payable": false,
      "stateMutability": "view",
      "type": "function"
    },
    {
      "constant": true,
      "inputs": [],
      "name": "uCount",
      "outputs": [
        {
          "internalType": "uint256",
          "name": "",
          "type": "uint256"
        }
      ],
      "payable": false,
      "stateMutability": "view",
      "type": "function"
    },
    {
      "constant": true,
      "inputs": [
        {
          "internalType": "uint256",
          "name": "",
          "type": "uint256"
        }
      ],
      "name": "users",
      "outputs": [
        {
          "internalType": "uint256",
          "name": "id",
          "type": "uint256"
        },
        {
          "internalType": "uint256",
          "name": "orgc",
          "type": "uint256"
        },
        {
          "internalType": "address payable",
          "name": "userAddress",
          "type": "address"
        }
      ],
      "payable": false,
      "stateMutability": "view",
      "type": "function"
    },
    {
      "constant": false,
      "inputs": [],
      "name": "initializeUser",
      "outputs": [],
      "payable": false,
      "stateMutability": "nonpayable",
      "type": "function"
    },
    {
      "constant": false,
      "inputs": [
        {
          "internalType": "string",
          "name": "_title",
          "type": "string"
        },
        {
          "internalType": "string",
          "name": "_category",
          "type": "string"
        },
        {
          "internalType": "string",
          "name": "_description",
          "type": "string"
        }
      ],
      "name": "initializeOrg",
      "outputs": [],
      "payable": false,
      "stateMutability": "nonpayable",
      "type": "function"
    },
    {
      "constant": false,
      "inputs": [
        {
          "internalType": "uint256",
          "name": "_id",
          "type": "uint256"
        }
      ],
      "name": "fundOrg",
      "outputs": [],
      "payable": true,
      "stateMutability": "payable",
      "type": "function"
    }
  ],
  "bytecode": "0x608060405260008055600060015534801561001957600080fd5b5061107e806100296000396000f3fe6080604052600436106100705760003560e01c80634f5c2e6c1161004e5780634f5c2e6c146101435780636864c10a146103105780637bc8924b1461033b578063c15f992d1461036657610070565b8063365b98b2146100755780634439a88a146100fe5780634b3538881461012c575b600080fd5b34801561008157600080fd5b506100ae6004803603602081101561009857600080fd5b810190808035906020019092919050505061055c565b604051808481526020018381526020018273ffffffffffffffffffffffffffffffffffffffff1673ffffffffffffffffffffffffffffffffffffffff168152602001935050505060405180910390f35b61012a6004803603602081101561011457600080fd5b81019080803590602001909291905050506105a6565b005b34801561013857600080fd5b50610141610967565b005b34801561014f57600080fd5b5061017c6004803603602081101561016657600080fd5b8101908080359060200190929190505050610a81565b604051808781526020018681526020018060200180602001806020018573ffffffffffffffffffffffffffffffffffffffff1673ffffffffffffffffffffffffffffffffffffffff168152602001848103845288818151815260200191508051906020019080838360005b838110156102025780820151818401526020810190506101e7565b50505050905090810190601f16801561022f5780820380516001836020036101000a031916815260200191505b50848103835287818151815260200191508051906020019080838360005b8381101561026857808201518184015260208101905061024d565b50505050905090810190601f1680156102955780820380516001836020036101000a031916815260200191505b50848103825286818151815260200191508051906020019080838360005b838110156102ce5780820151818401526020810190506102b3565b50505050905090810190601f1680156102fb5780820380516001836020036101000a031916815260200191505b50995050505050505050505060405180910390f35b34801561031c57600080fd5b50610325610ca5565b6040518082815260200191505060405180910390f35b34801561034757600080fd5b50610350610cab565b6040518082815260200191505060405180910390f35b34801561037257600080fd5b5061055a6004803603606081101561038957600080fd5b81019080803590602001906401000000008111156103a657600080fd5b8201836020820111156103b857600080fd5b803590602001918460018302840111640100000000831117156103da57600080fd5b91908080601f016020809104026020016040519081016040528093929190818152602001838380828437600081840152601f19601f8201169050808301925050505050505091929192908035906020019064010000000081111561043d57600080fd5b82018360208201111561044f57600080fd5b8035906020019184600183028401116401000000008311171561047157600080fd5b91908080601f016020809104026020016040519081016040528093929190818152602001838380828437600081840152601f19601f820116905080830192505050505050509192919290803590602001906401000000008111156104d457600080fd5b8201836020820111156104e657600080fd5b8035906020019184600183028401116401000000008311171561050857600080fd5b91908080601f016020809104026020016040519081016040528093929190818152602001838380828437600081840152601f19601f820116905080830192505050505050509192919290505050610cb1565b005b60026020528060005260406000206000915090508060000154908060010154908060020160009054906101000a900473ffffffffffffffffffffffffffffffffffffffff16905083565b6000811180156105b857506000548111155b6105c157600080fd5b6105c9610df2565b600360008381526020019081526020016000206040518060c00160405290816000820154815260200160018201548152602001600282018054600181600116156101000203166002900480601f0160208091040260200160405190810160405280929190818152602001828054600181600116156101000203166002900480156106945780601f1061066957610100808354040283529160200191610694565b820191906000526020600020905b81548152906001019060200180831161067757829003601f168201915b50505050508152602001600382018054600181600116156101000203166002900480601f0160208091040260200160405190810160405280929190818152602001828054600181600116156101000203166002900480156107365780601f1061070b57610100808354040283529160200191610736565b820191906000526020600020905b81548152906001019060200180831161071957829003601f168201915b50505050508152602001600482018054600181600116156101000203166002900480601f0160208091040260200160405190810160405280929190818152602001828054600181600116156101000203166002900480156107d85780601f106107ad576101008083540402835291602001916107d8565b820191906000526020600020905b8154815290600101906020018083116107bb57829003601f168201915b505050505081526020016005820160009054906101000a900473ffffffffffffffffffffffffffffffffffffffff1673ffffffffffffffffffffffffffffffffffffffff1673ffffffffffffffffffffffffffffffffffffffff1681525050905060008160a0015190508073ffffffffffffffffffffffffffffffffffffffff166108fc349081150290604051600060405180830381858888f19350505050158015610888573d6000803e3d6000fd5b50348260200151018260200181815250508160036000858152602001908152602001600020600082015181600001556020820151816001015560408201518160020190805190602001906108dd929190610e3e565b5060608201518160030190805190602001906108fa929190610e3e565b506080820151816004019080519060200190610917929190610e3e565b5060a08201518160050160006101000a81548173ffffffffffffffffffffffffffffffffffffffff021916908373ffffffffffffffffffffffffffffffffffffffff160217905550905050505050565b600160008154809291906001019190505550610981610ebe565b600154816000018181525050600081602001818152505033816040019073ffffffffffffffffffffffffffffffffffffffff16908173ffffffffffffffffffffffffffffffffffffffff168152505080600260006001548152602001908152602001600020600082015181600001556020820151816001015560408201518160020160006101000a81548173ffffffffffffffffffffffffffffffffffffffff021916908373ffffffffffffffffffffffffffffffffffffffff1602179055506060820151816003019080519060200190610a5d929190610f03565b506080820151816004019080519060200190610a7a929190610f63565b5090505050565b6003602052806000526040600020600091509050806000015490806001015490806002018054600181600116156101000203166002900480601f016020809104026020016040519081016040528092919081815260200182805460018160011615610100020316600290048015610b395780601f10610b0e57610100808354040283529160200191610b39565b820191906000526020600020905b815481529060010190602001808311610b1c57829003601f168201915b505050505090806003018054600181600116156101000203166002900480601f016020809104026020016040519081016040528092919081815260200182805460018160011615610100020316600290048015610bd75780601f10610bac57610100808354040283529160200191610bd7565b820191906000526020600020905b815481529060010190602001808311610bba57829003601f168201915b505050505090806004018054600181600116156101000203166002900480601f016020809104026020016040519081016040528092919081815260200182805460018160011615610100020316600290048015610c755780601f10610c4a57610100808354040283529160200191610c75565b820191906000526020600020905b815481529060010190602001808311610c5857829003601f168201915b5050505050908060050160009054906101000a900473ffffffffffffffffffffffffffffffffffffffff16905086565b60005481565b60015481565b6000835111610cbf57600080fd5b6000815111610ccd57600080fd5b60008081548092919060010191905055506040518060c001604052806000548152602001600081526020018481526020018381526020018281526020013373ffffffffffffffffffffffffffffffffffffffff16815250600360008054815260200190815260200160002060008201518160000155602082015181600101556040820151816002019080519060200190610d68929190610e3e565b506060820151816003019080519060200190610d85929190610e3e565b506080820151816004019080519060200190610da2929190610e3e565b5060a08201518160050160006101000a81548173ffffffffffffffffffffffffffffffffffffffff021916908373ffffffffffffffffffffffffffffffffffffffff160217905550905050505050565b6040518060c001604052806000815260200160008152602001606081526020016060815260200160608152602001600073ffffffffffffffffffffffffffffffffffffffff1681525090565b828054600181600116156101000203166002900490600052602060002090601f016020900481019282601f10610e7f57805160ff1916838001178555610ead565b82800160010185558215610ead579182015b82811115610eac578251825591602001919060010190610e91565b5b509050610eba9190610fb0565b5090565b6040518060a001604052806000815260200160008152602001600073ffffffffffffffffffffffffffffffffffffffff16815260200160608152602001606081525090565b828054828255906000526020600020908101928215610f52579160200282015b82811115610f51578251829080519060200190610f41929190610e3e565b5091602001919060010190610f23565b5b509050610f5f9190610fd5565b5090565b828054828255906000526020600020908101928215610f9f579160200282015b82811115610f9e578251825591602001919060010190610f83565b5b509050610fac9190610fb0565b5090565b610fd291905b80821115610fce576000816000905550600101610fb6565b5090565b90565b610ffe91905b80821115610ffa5760008181610ff19190611001565b50600101610fdb565b5090565b90565b50805460018160011615610100020316600290046000825580601f106110275750611046565b601f0160209004906000526020600020908101906110459190610fb0565b5b5056fea265627a7a7231582027586401c4a12682984925dc2a386bc9c59b9d4e0de5f16eebc662de7c7d170864736f6c63430005100032",
  "source": "pragma solidity ^0.5.0;\r\n\r\ncontract Covifund {\r\n    uint public oCount=0;\r\n    uint public uCount=0;\r\n\r\n    mapping (uint => User) public users;\r\n    mapping (uint => Org) public orgs;\r\n\r\n    struct User {\r\n        uint id;\r\n        uint orgc;\r\n        address payable userAddress;\r\n        string[] titles;\r\n        uint[] funds;\r\n    }\r\n    struct Org {\r\n        uint id;\r\n        uint funds;\r\n        string title;\r\n        string category;\r\n        string description;\r\n        address payable org_address;\r\n    }\r\n\r\n    function initializeUser() public {\r\n        uCount++;\r\n        User memory _user;\r\n        _user.id = uCount;\r\n        _user.orgc = 0;\r\n        _user.userAddress = msg.sender;\r\n        users[uCount] = _user;\r\n    }\r\n    function initializeOrg(string memory _title, string memory _category, string memory _description) public {\r\n        require(bytes(_title).length > 0);\r\n        require(bytes(_description).length > 0);\r\n        oCount++;\r\n        orgs[oCount] = Org(oCount, 0, _title, _category, _description, msg.sender);\r\n    }\r\n    \r\n    function fundOrg(uint _id) public payable {\r\n        require(_id > 0 && _id <= oCount);\r\n        Org memory _org = orgs[_id];\r\n        address payable _org_address = _org.org_address;\r\n        address(_org_address).transfer(msg.value);\r\n        _org.funds = _org.funds + msg.value;\r\n        orgs[_id] = _org;\r\n    }\r\n}",
  "sourcePath": "C:/Users/Abel Simon Zachariah/Projects/covi_fund/src/contracts/Covifund.sol",
  "compiler": {
    "name": "solc",
    "version": "0.5.16+commit.9c3226ce.Emscripten.clang"
  },
  "schemaVersion": "3.3.4",
  "updatedAt": "2021-05-29T02:31:34.015Z",
  "networkType": "ethereum",
  "devdoc": {
    "methods": {}
  },
  "userdoc": {
    "methods": {}
  }
}